{
  "_format": "hh-sol-artifact-1",
  "contractName": "VotingSystem",
  "sourceName": "contracts/Voting.sol",
  "abi": [
    {
      "inputs": [],
      "stateMutability": "nonpayable",
      "type": "constructor"
    },
    {
      "anonymous": false,
      "inputs": [
        {
          "indexed": false,
          "internalType": "uint256",
          "name": "electionId",
          "type": "uint256"
        },
        {
          "indexed": false,
          "internalType": "string",
          "name": "title",
          "type": "string"
        },
        {
          "indexed": false,
          "internalType": "uint256",
          "name": "candidateCount",
          "type": "uint256"
        }
      ],
      "name": "ElectionCreated",
      "type": "event"
    },
    {
      "anonymous": false,
      "inputs": [
        {
          "indexed": false,
          "internalType": "uint256",
          "name": "electionId",
          "type": "uint256"
        }
      ],
      "name": "ElectionEnded",
      "type": "event"
    },
    {
      "anonymous": false,
      "inputs": [
        {
          "indexed": false,
          "internalType": "uint256",
          "name": "electionId",
          "type": "uint256"
        },
        {
          "indexed": true,
          "internalType": "address",
          "name": "voter",
          "type": "address"
        },
        {
          "indexed": false,
          "internalType": "uint256",
          "name": "candidateIndex",
          "type": "uint256"
        }
      ],
      "name": "VoteCasted",
      "type": "event"
    },
    {
      "inputs": [],
      "name": "admin",
      "outputs": [
        {
          "internalType": "address",
          "name": "",
          "type": "address"
        }
      ],
      "stateMutability": "view",
      "type": "function"
    },
    {
      "inputs": [
        {
          "internalType": "string",
          "name": "title",
          "type": "string"
        },
        {
          "internalType": "string[]",
          "name": "candidateNames",
          "type": "string[]"
        }
      ],
      "name": "createElection",
      "outputs": [],
      "stateMutability": "nonpayable",
      "type": "function"
    },
    {
      "inputs": [],
      "name": "electionCount",
      "outputs": [
        {
          "internalType": "uint256",
          "name": "",
          "type": "uint256"
        }
      ],
      "stateMutability": "view",
      "type": "function"
    },
    {
      "inputs": [
        {
          "internalType": "uint256",
          "name": "",
          "type": "uint256"
        }
      ],
      "name": "elections",
      "outputs": [
        {
          "internalType": "string",
          "name": "title",
          "type": "string"
        },
        {
          "internalType": "uint256",
          "name": "status",
          "type": "uint256"
        },
        {
          "internalType": "uint256",
          "name": "totalVotes",
          "type": "uint256"
        }
      ],
      "stateMutability": "view",
      "type": "function"
    },
    {
      "inputs": [
        {
          "internalType": "uint256",
          "name": "electionId",
          "type": "uint256"
        }
      ],
      "name": "endElection",
      "outputs": [],
      "stateMutability": "nonpayable",
      "type": "function"
    },
    {
      "inputs": [],
      "name": "getActiveElectionsCount",
      "outputs": [
        {
          "internalType": "uint256",
          "name": "",
          "type": "uint256"
        }
      ],
      "stateMutability": "view",
      "type": "function"
    },
    {
      "inputs": [
        {
          "internalType": "uint256",
          "name": "electionId",
          "type": "uint256"
        }
      ],
      "name": "getElectionData",
      "outputs": [
        {
          "internalType": "string",
          "name": "title",
          "type": "string"
        },
        {
          "internalType": "uint256",
          "name": "status",
          "type": "uint256"
        },
        {
          "internalType": "string[]",
          "name": "candidateNames",
          "type": "string[]"
        },
        {
          "internalType": "uint256[]",
          "name": "voteCounts",
          "type": "uint256[]"
        }
      ],
      "stateMutability": "view",
      "type": "function"
    },
    {
      "inputs": [],
      "name": "getTotalElections",
      "outputs": [
        {
          "internalType": "uint256",
          "name": "",
          "type": "uint256"
        }
      ],
      "stateMutability": "view",
      "type": "function"
    },
    {
      "inputs": [],
      "name": "getTotalUsers",
      "outputs": [
        {
          "internalType": "uint256",
          "name": "",
          "type": "uint256"
        }
      ],
      "stateMutability": "view",
      "type": "function"
    },
    {
      "inputs": [],
      "name": "getTotalVotesCast",
      "outputs": [
        {
          "internalType": "uint256",
          "name": "",
          "type": "uint256"
        }
      ],
      "stateMutability": "view",
      "type": "function"
    },
    {
      "inputs": [
        {
          "internalType": "address",
          "name": "",
          "type": "address"
        }
      ],
      "name": "globalVoters",
      "outputs": [
        {
          "internalType": "bool",
          "name": "",
          "type": "bool"
        }
      ],
      "stateMutability": "view",
      "type": "function"
    },
    {
      "inputs": [
        {
          "internalType": "uint256",
          "name": "electionId",
          "type": "uint256"
        },
        {
          "internalType": "address",
          "name": "voter",
          "type": "address"
        }
      ],
      "name": "hasVotedInElection",
      "outputs": [
        {
          "internalType": "bool",
          "name": "",
          "type": "bool"
        }
      ],
      "stateMutability": "view",
      "type": "function"
    },
    {
      "inputs": [],
      "name": "totalUsers",
      "outputs": [
        {
          "internalType": "uint256",
          "name": "",
          "type": "uint256"
        }
      ],
      "stateMutability": "view",
      "type": "function"
    },
    {
      "inputs": [],
      "name": "totalVotesCast",
      "outputs": [
        {
          "internalType": "uint256",
          "name": "",
          "type": "uint256"
        }
      ],
      "stateMutability": "view",
      "type": "function"
    },
    {
      "inputs": [
        {
          "internalType": "uint256",
          "name": "electionId",
          "type": "uint256"
        },
        {
          "internalType": "uint256",
          "name": "candidateIndex",
          "type": "uint256"
        }
      ],
      "name": "vote",
      "outputs": [],
      "stateMutability": "nonpayable",
      "type": "function"
    }
  ],
  "bytecode": "0x608060405234801561001057600080fd5b5033600260006101000a81548173ffffffffffffffffffffffffffffffffffffffff021916908373ffffffffffffffffffffffffffffffffffffffff160217905550611edc806100616000396000f3fe608060405234801561001057600080fd5b50600436106100f55760003560e01c80639be572f611610097578063bff1f9e111610066578063bff1f9e114610279578063d3f7655b14610297578063f851a440146102b5578063f9334a40146102d3576100f5565b80639be572f6146102055780639c98bcbb14610223578063a9392e0c1461023f578063b384abef1461025d576100f5565b80636444d8c2116100d35780636444d8c2146101785780637de418d5146101ab57806392e2c6d2146101c9578063997d2830146101e7576100f5565b8063349813b2146100fa5780635bc261fa146101165780635e6fef0114610146575b600080fd5b610114600480360381019061010f91906111be565b610303565b005b610130600480360381019061012b91906112ca565b610564565b60405161013d9190611325565b60405180910390f35b610160600480360381019061015b9190611340565b610621565b60405161016f939291906113fb565b60405180910390f35b610192600480360381019061018d9190611340565b6106d3565b6040516101a29493929190611603565b60405180910390f35b6101b36109bd565b6040516101c0919061165d565b60405180910390f35b6101d16109c3565b6040516101de919061165d565b60405180910390f35b6101ef6109cd565b6040516101fc919061165d565b60405180910390f35b61020d6109d3565b60405161021a919061165d565b60405180910390f35b61023d60048036038101906102389190611340565b6109dd565b005b610247610b62565b604051610254919061165d565b60405180910390f35b61027760048036038101906102729190611678565b610b6c565b005b610281610ed4565b60405161028e919061165d565b60405180910390f35b61029f610eda565b6040516102ac919061165d565b60405180910390f35b6102bd610f38565b6040516102ca91906116c7565b60405180910390f35b6102ed60048036038101906102e891906116e2565b610f5e565b6040516102fa9190611325565b60405180910390f35b600260009054906101000a900473ffffffffffffffffffffffffffffffffffffffff1673ffffffffffffffffffffffffffffffffffffffff163373ffffffffffffffffffffffffffffffffffffffff1614610393576040517f08c379a000000000000000000000000000000000000000000000000000000000815260040161038a90611781565b60405180910390fd5b6002815110156103d8576040517f08c379a00000000000000000000000000000000000000000000000000000000081526004016103cf906117ed565b60405180910390fd5b600160008154809291906103eb9061183c565b9190505550600080600060015481526020019081526020016000209050828160000190816104199190611a90565b506001816001018190555060005b825181101561052057600083828151811061044557610444611b62565b5b6020026020010151511161048e576040517f08c379a000000000000000000000000000000000000000000000000000000000815260040161048590611bdd565b60405180910390fd5b8160020160405180604001604052808584815181106104b0576104af611b62565b5b602002602001015181526020016000815250908060018154018082558091505060019003906000526020600020906002020160009091909190915060008201518160000190816105009190611a90565b5060208201518160010155505080806105189061183c565b915050610427565b507f43131521170c5b80ffe9526cfec987f5a24eb1f6c4bda47c41a5e4b8388afe5c60015484845160405161055793929190611bfd565b60405180910390a1505050565b60008260008111801561057957506001548111155b6105b8576040517f08c379a00000000000000000000000000000000000000000000000000000000081526004016105af90611c87565b60405180910390fd5b60008085815260200190815260200160002060030160008473ffffffffffffffffffffffffffffffffffffffff1673ffffffffffffffffffffffffffffffffffffffff16815260200190815260200160002060009054906101000a900460ff1691505092915050565b6000602052806000526040600020600091509050806000018054610644906118b3565b80601f0160208091040260200160405190810160405280929190818152602001828054610670906118b3565b80156106bd5780601f10610692576101008083540402835291602001916106bd565b820191906000526020600020905b8154815290600101906020018083116106a057829003601f168201915b5050505050908060010154908060040154905083565b60606000606080846000811180156106ed57506001548111155b61072c576040517f08c379a000000000000000000000000000000000000000000000000000000000815260040161072390611c87565b60405180910390fd5b60008060008881526020019081526020016000209050806000018054610751906118b3565b80601f016020809104026020016040519081016040528092919081815260200182805461077d906118b3565b80156107ca5780601f1061079f576101008083540402835291602001916107ca565b820191906000526020600020905b8154815290600101906020018083116107ad57829003601f168201915b50505050509550806001015494506000816002018054905090508067ffffffffffffffff8111156107fe576107fd610fad565b5b60405190808252806020026020018201604052801561083157816020015b606081526020019060019003908161081c5790505b5094508067ffffffffffffffff81111561084e5761084d610fad565b5b60405190808252806020026020018201604052801561087c5781602001602082028036833780820191505090505b50935060005b818110156109b2578260020181815481106108a05761089f611b62565b5b906000526020600020906002020160000180546108bc906118b3565b80601f01602080910402602001604051908101604052809291908181526020018280546108e8906118b3565b80156109355780601f1061090a57610100808354040283529160200191610935565b820191906000526020600020905b81548152906001019060200180831161091857829003601f168201915b505050505086828151811061094d5761094c611b62565b5b602002602001018190525082600201818154811061096e5761096d611b62565b5b90600052602060002090600202016001015485828151811061099357610992611b62565b5b60200260200101818152505080806109aa9061183c565b915050610882565b505050509193509193565b60055481565b6000600554905090565b60015481565b6000600454905090565b600260009054906101000a900473ffffffffffffffffffffffffffffffffffffffff1673ffffffffffffffffffffffffffffffffffffffff163373ffffffffffffffffffffffffffffffffffffffff1614610a6d576040517f08c379a0000000000000000000000000000000000000000000000000000000008152600401610a6490611781565b60405180910390fd5b80600081118015610a8057506001548111155b610abf576040517f08c379a0000000000000000000000000000000000000000000000000000000008152600401610ab690611c87565b60405180910390fd5b600080600084815260200190815260200160002090506001816001015414610b1c576040517f08c379a0000000000000000000000000000000000000000000000000000000008152600401610b1390611cf3565b60405180910390fd5b600281600101819055507f562cd572b2ba3b666cd989fc4ca98419ec81e75f04528df9d9d76fdb7807ee7183604051610b55919061165d565b60405180910390a1505050565b6000600154905090565b81600081118015610b7f57506001548111155b610bbe576040517f08c379a0000000000000000000000000000000000000000000000000000000008152600401610bb590611c87565b60405180910390fd5b600080600085815260200190815260200160002090506001816001015414610c1b576040517f08c379a0000000000000000000000000000000000000000000000000000000008152600401610c1290611d5f565b60405180910390fd5b8060030160003373ffffffffffffffffffffffffffffffffffffffff1673ffffffffffffffffffffffffffffffffffffffff16815260200190815260200160002060009054906101000a900460ff1615610caa576040517f08c379a0000000000000000000000000000000000000000000000000000000008152600401610ca190611df1565b60405180910390fd5b80600201805490508310610cf3576040517f08c379a0000000000000000000000000000000000000000000000000000000008152600401610cea90611e5d565b60405180910390fd5b60018160030160003373ffffffffffffffffffffffffffffffffffffffff1673ffffffffffffffffffffffffffffffffffffffff16815260200190815260200160002060006101000a81548160ff021916908315150217905550806002018381548110610d6357610d62611b62565b5b90600052602060002090600202016001016000815480929190610d859061183c565b9190505550806004016000815480929190610d9f9061183c565b919050555060056000815480929190610db79061183c565b9190505550600360003373ffffffffffffffffffffffffffffffffffffffff1673ffffffffffffffffffffffffffffffffffffffff16815260200190815260200160002060009054906101000a900460ff16610e7e576001600360003373ffffffffffffffffffffffffffffffffffffffff1673ffffffffffffffffffffffffffffffffffffffff16815260200190815260200160002060006101000a81548160ff02191690831515021790555060046000815480929190610e789061183c565b91905055505b3373ffffffffffffffffffffffffffffffffffffffff167fe7ee74ca1f4bb1b82b14f87794c45b3e59c39e372b862fb97a6316b43355b69e8585604051610ec6929190611e7d565b60405180910390a250505050565b60045481565b600080600090506000600190505b6001548111610f305760016000808381526020019081526020016000206001015403610f1d578180610f199061183c565b9250505b8080610f289061183c565b915050610ee8565b508091505090565b600260009054906101000a900473ffffffffffffffffffffffffffffffffffffffff1681565b60036020528060005260406000206000915054906101000a900460ff1681565b6000604051905090565b600080fd5b600080fd5b600080fd5b600080fd5b6000601f19601f8301169050919050565b7f4e487b7100000000000000000000000000000000000000000000000000000000600052604160045260246000fd5b610fe582610f9c565b810181811067ffffffffffffffff8211171561100457611003610fad565b5b80604052505050565b6000611017610f7e565b90506110238282610fdc565b919050565b600067ffffffffffffffff82111561104357611042610fad565b5b61104c82610f9c565b9050602081019050919050565b82818337600083830152505050565b600061107b61107684611028565b61100d565b90508281526020810184848401111561109757611096610f97565b5b6110a2848285611059565b509392505050565b600082601f8301126110bf576110be610f92565b5b81356110cf848260208601611068565b91505092915050565b600067ffffffffffffffff8211156110f3576110f2610fad565b5b602082029050602081019050919050565b600080fd5b600061111c611117846110d8565b61100d565b9050808382526020820190506020840283018581111561113f5761113e611104565b5b835b8181101561118657803567ffffffffffffffff81111561116457611163610f92565b5b80860161117189826110aa565b85526020850194505050602081019050611141565b5050509392505050565b600082601f8301126111a5576111a4610f92565b5b81356111b5848260208601611109565b91505092915050565b600080604083850312156111d5576111d4610f88565b5b600083013567ffffffffffffffff8111156111f3576111f2610f8d565b5b6111ff858286016110aa565b925050602083013567ffffffffffffffff8111156112205761121f610f8d565b5b61122c85828601611190565b9150509250929050565b6000819050919050565b61124981611236565b811461125457600080fd5b50565b60008135905061126681611240565b92915050565b600073ffffffffffffffffffffffffffffffffffffffff82169050919050565b60006112978261126c565b9050919050565b6112a78161128c565b81146112b257600080fd5b50565b6000813590506112c48161129e565b92915050565b600080604083850312156112e1576112e0610f88565b5b60006112ef85828601611257565b9250506020611300858286016112b5565b9150509250929050565b60008115159050919050565b61131f8161130a565b82525050565b600060208201905061133a6000830184611316565b92915050565b60006020828403121561135657611355610f88565b5b600061136484828501611257565b91505092915050565b600081519050919050565b600082825260208201905092915050565b60005b838110156113a757808201518184015260208101905061138c565b60008484015250505050565b60006113be8261136d565b6113c88185611378565b93506113d8818560208601611389565b6113e181610f9c565b840191505092915050565b6113f581611236565b82525050565b6000606082019050818103600083015261141581866113b3565b905061142460208301856113ec565b61143160408301846113ec565b949350505050565b600081519050919050565b600082825260208201905092915050565b6000819050602082019050919050565b600082825260208201905092915050565b60006114818261136d565b61148b8185611465565b935061149b818560208601611389565b6114a481610f9c565b840191505092915050565b60006114bb8383611476565b905092915050565b6000602082019050919050565b60006114db82611439565b6114e58185611444565b9350836020820285016114f785611455565b8060005b85811015611533578484038952815161151485826114af565b945061151f836114c3565b925060208a019950506001810190506114fb565b50829750879550505050505092915050565b600081519050919050565b600082825260208201905092915050565b6000819050602082019050919050565b61157a81611236565b82525050565b600061158c8383611571565b60208301905092915050565b6000602082019050919050565b60006115b082611545565b6115ba8185611550565b93506115c583611561565b8060005b838110156115f65781516115dd8882611580565b97506115e883611598565b9250506001810190506115c9565b5085935050505092915050565b6000608082019050818103600083015261161d81876113b3565b905061162c60208301866113ec565b818103604083015261163e81856114d0565b9050818103606083015261165281846115a5565b905095945050505050565b600060208201905061167260008301846113ec565b92915050565b6000806040838503121561168f5761168e610f88565b5b600061169d85828601611257565b92505060206116ae85828601611257565b9150509250929050565b6116c18161128c565b82525050565b60006020820190506116dc60008301846116b8565b92915050565b6000602082840312156116f8576116f7610f88565b5b6000611706848285016112b5565b91505092915050565b7f4f6e6c792061646d696e2063616e20706572666f726d2074686973206163746960008201527f6f6e000000000000000000000000000000000000000000000000000000000000602082015250565b600061176b602283611378565b91506117768261170f565b604082019050919050565b6000602082019050818103600083015261179a8161175e565b9050919050565b7f4174206c6561737420322063616e646964617465732072657175697265640000600082015250565b60006117d7601e83611378565b91506117e2826117a1565b602082019050919050565b60006020820190508181036000830152611806816117ca565b9050919050565b7f4e487b7100000000000000000000000000000000000000000000000000000000600052601160045260246000fd5b600061184782611236565b91507fffffffffffffffffffffffffffffffffffffffffffffffffffffffffffffffff82036118795761187861180d565b5b600182019050919050565b7f4e487b7100000000000000000000000000000000000000000000000000000000600052602260045260246000fd5b600060028204905060018216806118cb57607f821691505b6020821081036118de576118dd611884565b5b50919050565b60008190508160005260206000209050919050565b60006020601f8301049050919050565b600082821b905092915050565b6000600883026119467fffffffffffffffffffffffffffffffffffffffffffffffffffffffffffffffff82611909565b6119508683611909565b95508019841693508086168417925050509392505050565b6000819050919050565b600061198d61198861198384611236565b611968565b611236565b9050919050565b6000819050919050565b6119a783611972565b6119bb6119b382611994565b848454611916565b825550505050565b600090565b6119d06119c3565b6119db81848461199e565b505050565b5b818110156119ff576119f46000826119c8565b6001810190506119e1565b5050565b601f821115611a4457611a15816118e4565b611a1e846118f9565b81016020851015611a2d578190505b611a41611a39856118f9565b8301826119e0565b50505b505050565b600082821c905092915050565b6000611a6760001984600802611a49565b1980831691505092915050565b6000611a808383611a56565b9150826002028217905092915050565b611a998261136d565b67ffffffffffffffff811115611ab257611ab1610fad565b5b611abc82546118b3565b611ac7828285611a03565b600060209050601f831160018114611afa5760008415611ae8578287015190505b611af28582611a74565b865550611b5a565b601f198416611b08866118e4565b60005b82811015611b3057848901518255600182019150602085019450602081019050611b0b565b86831015611b4d5784890151611b49601f891682611a56565b8355505b6001600288020188555050505b505050505050565b7f4e487b7100000000000000000000000000000000000000000000000000000000600052603260045260246000fd5b7f43616e646964617465206e616d652063616e6e6f7420626520656d7074790000600082015250565b6000611bc7601e83611378565b9150611bd282611b91565b602082019050919050565b60006020820190508181036000830152611bf681611bba565b9050919050565b6000606082019050611c1260008301866113ec565b8181036020830152611c2481856113b3565b9050611c3360408301846113ec565b949350505050565b7f456c656374696f6e20646f6573206e6f74206578697374000000000000000000600082015250565b6000611c71601783611378565b9150611c7c82611c3b565b602082019050919050565b60006020820190508181036000830152611ca081611c64565b9050919050565b7f456c656374696f6e20697320616c726561647920656e64656400000000000000600082015250565b6000611cdd601983611378565b9150611ce882611ca7565b602082019050919050565b60006020820190508181036000830152611d0c81611cd0565b9050919050565b7f456c656374696f6e206973206e6f742061637469766500000000000000000000600082015250565b6000611d49601683611378565b9150611d5482611d13565b602082019050919050565b60006020820190508181036000830152611d7881611d3c565b9050919050565b7f596f75206861766520616c726561647920766f74656420696e2074686973206560008201527f6c656374696f6e00000000000000000000000000000000000000000000000000602082015250565b6000611ddb602783611378565b9150611de682611d7f565b604082019050919050565b60006020820190508181036000830152611e0a81611dce565b9050919050565b7f496e76616c69642063616e64696461746520696e646578000000000000000000600082015250565b6000611e47601783611378565b9150611e5282611e11565b602082019050919050565b60006020820190508181036000830152611e7681611e3a565b9050919050565b6000604082019050611e9260008301856113ec565b611e9f60208301846113ec565b939250505056fea26469706673582212209b8be320f7cd4b6aa6e5dd6c082125c72b1da57e599873c95b8df41215485c5764736f6c63430008130033",
  "linkReferences": {},
  "deployedLinkReferences": {}
}